:020000040800F2
:10000000E804002045010008871D0008491B00087E
:100010003D1D000889020008DD21000800000000E5
:10002000000000000000000000000000B51D0008F6
:100030008D02000800000000891D0008F11D000865
:100040005F0100085F0100085F0100085F01000810
:100050005F0100085F0100085F0100085F01000800
:100060005F0100085F0100085F0100085F010008F0
:100070005F0100085F0100085F0100085F010008E0
:100080005F0100085F0100085F0100085F010008D0
:100090005F0100085F0100085F0100089F0200087F
:1000A0005F0100085F0100085F0100085F010008B0
:1000B0005F0100085F0100085F0100085F010008A0
:1000C0005F0100085F0100085F0100085F01000890
:1000D0005F0100085F0100085F0100085F01000880
:1000E0005F0100085F0100085F0100085F01000870
:1000F0005F0100085F0100085F0100085F01000860
:100100005F0100085F0100085F0100085F0100084F
:100110005F0100085F0100085F0100085F0100083F
:100120005F0100085F0100085F0100085F0100082F
:10013000DFF80CD000F02AF80048004751220008F0
:10014000E80400200648804706480047FEE7FEE72F
:10015000FEE7FEE7FEE7FEE7FEE7FEE7FEE7FEE777
:10016000651E000831010008D2B201E000F8012B41
:10017000491EFBD270470022F6E710B513460A4627
:1001800004461946FFF7F0FF204610BD064C074D08
:1001900006E0E06840F0010394E807009847103457
:1001A000AC42F6D3FFF7C8FF4C2300086C230008CD
:1001B00070B5044600252068806800F00100F0B1A9
:1001C0002068806820F001002168886000F044FD0C
:1001D00005460EE000F040FD401B022809D9A06A48
:1001E00040F01000A062E06A40F00100E0620120EF
:1001F00070BD2068806800F001000028EAD100206E
:10020000F6E7000038B5044600250020009020687D
:10021000806800F0010080BB2068806840F0010029
:1002200021688860164800681649B0FBF1F000901C
:1002300002E00098401E009000980028F9D100F0DC
:100240000BFD054613E000F007FD401B02280ED908
:10025000A06A40F01000A062E06A40F00100E06295
:1002600000BF002084F8240000BF012038BD2068B2
:10027000806800F001000028E5D00020F6E70000CB
:100280000C00002040420F0000BFFEE7704710B591
:100290000446617B0122606800F0D8FC10BD10B5F7
:1002A000402000F01BFB10BD10B50446617B00220E
:1002B000606800F0CBFC10BD7047000038B5024606
:1002C00000230020009000BF92F82400012801D1F3
:1002D000022038BD012082F8240000BF48680728AA
:1002E00012D21068406B0C79641E04EB84051F2445
:1002F000AC40A0430D796D1E05EB85050C68AC4044
:1003000020431468606327E048680D2812D2106803
:10031000006B0C79E41F04EB84051F24AC40A04360
:100320000D79ED1F05EB85050C68AC402043146882
:10033000206311E01068C06A0C790D3C04EB840561
:100340001F24AC40A0430D790D3D05EB85050C68DD
:10035000AC4020431468E06208680A2812D3106891
:10036000C0680C780A3C04EB44050724AC40A04369
:100370000D780A3D05EB45058C68AC4020431468B8
:10038000E0600FE0106800690C7804EB4405072476
:10039000AC40A0430D7805EB45058C68AC4020438C
:1003A000146820610868102802D00868112827D135
:1003B000174C1068A0421ED11068806800F400003D
:1003C000F0B91068806840F400001468A060086804
:1003D000102815D10F4800680F4CB0FBF4F000EB6B
:1003E00080004000009002E00098401E00900098BD
:1003F0000028F9D104E0906A40F0200090620123C7
:1004000000BF002082F8240000BF184661E700000A
:10041000002401400C00002040420F000146086803
:10042000C06C70472DE9F0410446002700250026E6
:10043000A84614B90120BDE8F081A06810B1207D64
:1004400000B100BFA06A30B90020E06284F8240047
:10045000204600F097F82046FFF7AAFE0746A06A5C
:1004600000F01000002873D1002F7ED1A06A20F484
:10047000885040F00200A0623F4AD4E90001904257
:1004800008D1E069B0F5402F02D14FF4002002E01E
:10049000E06900E0E0690143207B41EA4000064357
:1004A000A068B0F5807F02D0A068012802D14FF487
:1004B000807000E000200543207D012811D1207BC1
:1004C00038B9A069401E4FF4006141EA403005434D
:1004D00007E0A06A40F02000A062E06A40F001005E
:1004E000E0622068406820F4694028432168486041
:1004F0002068806821490840304321688860A068EE
:10050000B0F5807F02D0A068012802D14FF480703E
:1005100000E00020B0F5807F03D1208A401E4FEA22
:1005200000582068C06A20F4700040EA0800216882
:10053000C8622068806812490840B04209D1002092
:10054000E062A06A20F0020040F00100A06211E029
:100550000BE0A06A20F0020040F01000A062E06A08
:1005600040F00100E062012704E0A06A40F01000C2
:10057000A062012738465EE7003C0140FDF7E1FF3D
:10058000FE0E1FFF10B586B00446002002900390B7
:100590000490059014492068884222D100BF134876
:1005A000806940F40070114988610846806900F450
:1005B0000070019000BF00BF00BF0846806940F096
:1005C000100088610846806900F01000019000BFAB
:1005D00000BF202002900320039002A9044800F0ED
:1005E0008BF906B010BD000000240140001002404D
:1005F00000100140F8B504460D460026002000908A
:10060000002700F029FB06462068806800F480700F
:1006100050B1A06A40F02000A06200BF002084F822
:10062000240000BF0120F8BD2068406800F48070FD
:10063000F8B92068C06A00F47000D0B912E0681CF4
:1006400080B125B100F008FB801BA8420AD9A06A3E
:1006500040F00400A06200BF002084F8240000BF26
:100660000320E0E72068006800F002000028E6D0E0
:1006700050E0022000F0C8FB36490968B1FBF0F0F9
:1006800021680969344A114091B92168C9689211F9
:10069000114069B921680969304A114031B92168AE
:1006A000C9689211114009B9142117E0292115E0F8
:1006B00021680969294A114021B92168C968921144
:1006C000114041B121680969254A114029B92168C1
:1006D000C968114009B9542100E0FC2100FB01F771
:1006E00015E0681C80B125B100F0B6FA801BA84265
:1006F0000AD9A06A40F00400A06200BF002084F87C
:10070000240000BF03208EE70098401C0090009852
:10071000B842E6D36FF0120021680860A06A40F486
:100720000070A0622068806800F46020B0F5602F3F
:100730000DD1207B58B9A06A20F48070A062A06A15
:1007400000F4805018B9A06A40F00100A0620020B7
:1007500069E700000C0000202449922492244912E9
:100760004992240070B50446002500BF94F8240087
:10077000012801D1022070BD012084F8240000BFAF
:100780002046FFF73FFD0546002D7DD1A06A40F6CB
:100790000161884340F48070A0623F49206888422C
:1007A00008D13E48006800F4702008B9012002E03A
:1007B000002000E0012078B1A06A20F48010A0623F
:1007C0002068406800F4806000B3A06A20F4005004
:1007D00040F48050A06219E0A06A40F48010A0624A
:1007E0002E49091F2068884203D02B49206888427F
:1007F00004D12A48006800F4806000E0002028B19D
:10080000A06A20F4005040F48050A062A06A00F476
:10081000805020B1E06A20F00600E06201E0002094
:10082000E06200BF002084F8240000BFC01E2168E1
:1008300008602068406840F0200021684860206817
:10084000806800F46020B0F5602F16D1124920684E
:10085000884208D11148006800F4702008B90120CE
:1008600002E0002000E0012038B12068806840F4F8
:10087000A000216888600CE006E02068806840F4F1
:1008800080102168886004E000BF002084F8240004
:1008900000BF28466FE70000002801400424014003
:1008A00070B5044600F0D8F906462546681C10B11C
:1008B00004480078054400BF00F0CEF9801BA84230
:1008C000FAD370BD0800002010B50446402C02D1B8
:1008D000014801F035FA10BD2000002010B5044693
:1008E00004480068204020B1024804602046FFF719
:1008F000EBFF10BD140401402DE9F8470246002328
:100900009C467BE14FF0010808FA03F4D1F800801F
:1009100008EA0400A0427DD1DFF8F4A2D1F80480F7
:10092000A8EB0A09D0453AD014DCB8F1030F50D037
:1009300009DCB8F1000F31D0B8F1010F1CD0B8F1CB
:10094000020F49D120E0B8F1110F18D0B8F1120F01
:1009500042D11EE0B9F5881F25D006DCB9F5803FED
:1009600020D0B9F5801F37D11AE0B9F5001F18D093
:10097000B9F5041F30D117E0D1F80CC02DE0D1F843
:100980000C8008F1040C28E0D1F80C8008F1080C68
:1009900023E0D1F80C8008F10C0C1EE000BF00BF72
:1009A00000BF00BF00BF00BFD1F80880B8F1000F42
:1009B00002D14FF0040C0BE0D1F80880B8F1010F20
:1009C00003D14FF0080C146102E04FF0080C5461A1
:1009D00003E04FF0000C00E000BF00BFFF2801D88B
:1009E000904601E002F104084646FF2802D84FEA8B
:1009F000830803E0A3F108084FEA88084746D6F8C1
:100A000000804FF00F0909FA07F928EA09080CFAE3
:100A100007F900E07AE048EA0908C6F80080D1F852
:100A2000048008F08058B8F1805F6FD100BFDFF814
:100A3000E481D8F8188048F00108DFF8D891C9F8A7
:100A40001880C846D8F8188008F00108CDF8008052
:100A500000BF00BF4FEAB9384FEA930958F8295050
:100A60004FEA83784FEA18794FF00F0808FA09F82F
:100A700025EA0805DFF8A081424502D14FF00008C1
:100A800024E0DFF89881424502D14FF001081DE0D3
:100A9000DFF88C81424502D14FF0020816E0DFF802
:100AA0008481424502D14FF003080FE0DFF87881DE
:100AB000424502D14FF0040808E0DFF8708142455A
:100AC00002D14FF0050801E04FF006084FEA8379A4
:100AD0004FEA197908FA09F848EA0505DFF8508164
:100AE0004FEA930948F82950D1F8048008F4803877
:100AF000B8F5803F0BD1DFF83C81D8F8008048EA98
:100B00000008DFF83091C9F800800AE075E0DFF8EE
:100B10002481D8F8008028EA0008DFF81891C9F885
:100B20000080D1F8048008F40038B8F5003F0ED1F9
:100B3000DFF8008108F10408D8F8008048EA0008CE
:100B4000DFF8F09009F10409C9F800800DE0DFF842
:100B5000E48008F10408D8F8008028EA0008DFF8EB
:100B6000D49009F10409C9F80080D1F8048008F490
:100B70008018B8F5801F0ED1DFF8B88008F108089A
:100B8000D8F8008048EA0008DFF8A89009F10809C1
:100B9000C9F800800DE0DFF89C8008F10808D8F85B
:100BA000008028EA0008DFF88C9009F10809C9F8EC
:100BB0000080D1F8048008F40018B8F5001F0ED1A9
:100BC000DFF8708008F10C08D8F8008048EA0008C7
:100BD000DFF8609009F10C09C9F800800DE0DFF83A
:100BE000548008F10C08D8F8008028EA0008DFF8E3
:100BF000449009F10C09C9F800805B1CD1F8008011
:100C000028FA03F8B8F1000F7FF47CAEBDE8F8874E
:100C1000000011100010024000080140000C0140CB
:100C2000001001400014014000180140001C014068
:100C3000080001400004014010B5C26821EA020327
:100C400002EA010443EA0443036110BD0AB10161F1
:100C500001E00B0403617047014800687047000021
:100C6000000000200348006803490978084401494E
:100C700008607047000000200800002010B50848F8
:100C8000006840F0100006490860032000F0A8F852
:100C9000002000F007F800F02BF8002010BD000045
:100CA0000020024070B504460E4800784FF47A7177
:100CB000B1FBF0F00C490968B1FBF0F5284600F0F3
:100CC0003DFD08B1012070BD102C07D20022214645
:100CD000501E00F047F80548046001E00120F2E7EB
:100CE0000020F0E7080000200C0000200400002095
:100CF00008B500BF1148806940F001000F498861C4
:100D00000846806900F00100009000BF00BF00BFEE
:100D10000846C06940F08050C8610846C06900F0CC
:100D20008050009000BF00BF00BF0549486820F018
:100D3000E06000BF486000BF08BD00000010024036
:100D40000000014001460846002809DB00F01F03AF
:100D500001229A4043099B0003F1E023C3F80021DC
:100D600000BF70472DE9F05F80460D46164600270C
:100D700001F036FA074639462A46334601F00700A5
:100D8000C0F1070ABAF1040F02D94FF0040A01E0DA
:100D9000C0F1070AD14600F1040ABAF1070F02D2E6
:100DA0004FF0000A01E0A0F1030AD4464FF0010A17
:100DB0000AFA09FAAAF1010A0AEA020A0AFA0CFA7C
:100DC0004FF0010B0BFA0CFBABF1010B0BEA030B21
:100DD0004AEA0B042146404601F00AFABDE8F09FBA
:100DE00000BF00F00702064B19684FF6FF031940D9
:100DF000044B0B4343EA0221014B196000BF7047CB
:100E00000CED00E00000FA052DE9F04385B0064640
:100E100042A30FCB01AC0FC444A0006800904FF078
:100E20000008002500270024A146042E36D004DC4B
:100E3000012E3BD0022E6BD15FE0082E32D0102E57
:100E400066D13B484468006800F0807000B301A898
:100E5000C4F38341475C04F4803070B13448406887
:100E6000C0F340401DF8008004F4803040B13148A8
:100E7000B0FBF8F000FB07F502E02F4807FB00F598
:100E80002B48406800F48000B0F5800F01D1A946DE
:100E900003E068000321B0FBF1F93AE000F0D2F979
:100EA000814636E000F0CEF9814632E02048046AFF
:100EB00004F44070B0F5807F05D104F0020010B159
:100EC0004FF4004918E004F44070B0F5007F07D1FA
:100ED0001748406A00F0020010B149F640490BE0A3
:100EE00004F44070B0F5407F06D11148006800F46A
:100EF000003008B14FF224490BE000F093F90C499F
:100F00004968C1F38131491C4900B0FBF1F900E0A7
:100F100000BF00BF484605B0BDE8F08302030405EA
:100F2000060708090A0B0C0D0E0F10100102000035
:100F30000010024000127A0000093D00F8B5044696
:100F400000260025207800F0010000286BD0002743
:100F50004348C06900F0805070B900BF4048C06984
:100F600040F080503E49C8610846C06900F080509A
:100F7000009000BF00BF01273A48006800F480706D
:100F8000B0B93848006840F4807036490860FFF70F
:100F900063FE064606E0FFF75FFE801B642801D96A
:100FA0000320F8BD2F48006800F480700028F2D0BC
:100FB0002B48006A00F440752DB3A08800F44070FF
:100FC000A84220D02648006A20F440750120264916
:100FD0000860002008602248056205F0010090B119
:100FE000FFF73AFE064608E0FFF736FE801B41F2A7
:100FF0008831884201D90320D3E71948006A00F0FC
:1010000002000028F0D01648006A20F440706168A1
:10101000084313490862012F04D10846C06920F033
:101020008050C86100BF207800F00200022807D17C
:101030000B48406820F44040A168084308494860D4
:10104000207800F01000102807D10548406820F4EF
:10105000800061690843024948600020A1E7000060
:1010600000100240007000404004424270B5044647
:101070000D460CB9012070BD5A48006800F0070009
:10108000A8420ED25748006820F00700284355496F
:1010900008600846006800F00700A84201D001205F
:1010A000E9E7207800F0020002281DD1207800F046
:1010B0000400042805D14C48406840F4E0604A49E7
:1010C0004860207800F00800082805D146484068AC
:1010D00040F46050444948604348406820F0F000C4
:1010E000A168084340494860207800F0010078B3C7
:1010F0006068012806D13C48006800F4003090B9CF
:101100000120B8E76068022806D13748006800F07F
:10111000007040B90120AEE73348006800F00200DB
:1011200008B90120A7E73048406820F00300616853
:1011300008432D494860FFF78FFD064609E0FFF799
:101140008BFD801B41F28831884202D9032092E74F
:1011500007E02548406800F00C006168B0EB810FA3
:10116000EDD12048006800F00700A8420ED91D48C4
:10117000006820F0070028431A4908600846006804
:1011800000F00700A84201D0012074E7207800F0A9
:101190000400042807D11448406820F4E060E168A6
:1011A000084311494860207800F00800082808D159
:1011B0000D48406820F46050216940EAC1000A49A6
:1011C000486000F03FF808494968C1F30311074A35
:1011D000515CC8400649086006480068FFF762FD98
:1011E000002048E70020024000100240342300089D
:1011F0000C00002004000020014800687047000037
:101200000C00002000B5FFF7F7FF04494968C1F35F
:101210000221034A515CC84000BD0000001002409A
:101220004423000800B5FFF7E7FF04494968C1F30C
:10123000C221034A515CC84000BD000000100240BA
:1012400044230008F0B585B00FF26C0C9CE8E01068
:1012500001A8A0E8E0101CA52D680095002100223F
:10126000002300240020194D696801F00C05F5B138
:10127000042D02D0082D19D101E0154819E001AD67
:10128000C1F38346AC5D01F4803555B10F4D6D68F7
:10129000C5F340451DF805200D4D6543B5FBF2F340
:1012A00002E00C4D04FB05F3184602E000BF0848BD
:1012B00000BF00BF05B0F0BD020304050607080922
:1012C0000A0B0C0D0E0F101001020000001002405E
:1012D00000127A0000093D00F8B504460CB901205F
:1012E000F8BD207800F00100002878D0F848406868
:1012F00000F00C0004280CD0F548406800F00C0009
:10130000082811D1F248406800F48030B0F5803FE1
:101310000AD1EF48006800F4003000285FD0606810
:1013200000285CD10120DBE700BF6068B0F5803F9A
:1013300006D1E748006840F48030E549086028E0BD
:10134000606858B9E248006820F48030E0490860DD
:101350000846006820F4802008601AE06068B0F554
:10136000A02F0BD1DA48006840F48020D8490860EB
:101370000846006840F4803008600AE0D4480068FD
:1013800020F48030D24908600846006820F48020AC
:10139000086000BF606888B1FFF75EFC054606E0A4
:1013A000FFF75AFC401B642801D9032098E7C8487E
:1013B000006800F400300028F2D010E0FFF74CFC89
:1013C000054606E0FFF748FC401B642801D90320CE
:1013D00086E7BF48006800F400300028F2D120788A
:1013E00000F00200022857D1B948406800F00C0014
:1013F00050B1B748406800F00C00082818D1B44834
:10140000406800F4803098B9B148006800F00200EC
:1014100020B12069012801D0012061E7AC480068B3
:1014200020F0F800616940EAC100A949086033E092
:101430002069E8B10120A7490860FFF70DFC0546C7
:1014400006E0FFF709FC401B022801D9032047E70B
:101450009F48006800F002000028F2D09C48006815
:1014600020F0F800616940EAC1009949086013E082
:10147000002098490860FFF7EFFB054606E0FFF7FC
:10148000EBFB401B022801D9032029E790480068A4
:1014900000F002000028F2D1207800F008000828AF
:1014A0002DD1A069B8B101208B490860FFF7D4FBAA
:1014B000054606E0FFF7D0FB401B022801D90320B8
:1014C0000EE78348406A00F002000028F2D00120B5
:1014D00000F05CFC13E000207F490860FFF7BCFBD4
:1014E000054606E0FFF7B8FB401B022801D90320A0
:1014F000F6E67748406A00F002000028F2D1207832
:1015000000F00400042873D100277148C06900F07E
:10151000805070B900BF6E48C06940F080506C497F
:10152000C8610846C06900F08050009000BF00BF4D
:1015300001276A48006800F48070B0B96748006805
:1015400040F4807065490860FFF786FB054606E0B9
:10155000FFF782FB401B642801D90320C0E65F48E7
:10156000006800F480700028F2D000BFE068012815
:1015700006D15748006A40F001005549086227E04B
:10158000E06858B95248006A20F0010050490862EA
:101590000846006A20F00400086219E0E0680528A7
:1015A0000BD14B48006A40F00400494908620846E4
:1015B000006A40F0010008620AE04548006A20F035
:1015C0000100434908620846006A20F004000862EE
:1015D00000BFE068A0B1FFF73FFB054609E0FFF759
:1015E0003BFB401B41F28831884202D9032077E659
:1015F00022E03748006A00F002000028EFD012E035
:10160000FFF72AFB054608E0FFF726FB401B41F2E7
:101610008831884201D9032062E62D48006A00F033
:1016200002000028F0D1012F05D12948C06920F01F
:1016300080502749C86100BFE069C8B324484068AA
:1016400000F00C00082860D0E069022848D1002092
:1016500020490866FFF700FB054606E0FFF7FCFAA5
:10166000401B022801D903203AE61948006800F01F
:1016700000700028F2D1206AB0F5803F07D11448ED
:10168000406820F40030A168084311494860D4E95B
:10169000080108430E49496821F4741108430C49B4
:1016A000486001200B490866FFF7D6FA054607E0B7
:1016B0003DE0FFF7D1FA401B022801D903200FE6D5
:1016C0000348006800F000700028F2D02FE000000E
:1016D000001002400000424280044242007000407C
:1016E000002014490866FFF7B7FA054606E0FFF741
:1016F000B3FA401B022801D90320F1E50E48006827
:1017000000F000700028F2D111E0E069012800D15A
:10171000E6E50948466806F48031206A814204D132
:1017200006F47011606A814201D00120D8E50020E2
:10173000D6E50000000042420010024070B50446A9
:101740002546681EB0F1807F01D301200FE0681E9E
:101750004FF0E02148610F214FF0FF3000F048FDCD
:1017600000204FF0E021886107200861002070BD53
:1017700030B502460B4600BF92F83C00012801D16B
:10178000022030BD012082F83C0000BF022082F818
:101790003D00106844681068816824F0700418687F
:1017A000044310684460144D1068A84213D0134DD0
:1017B0001068A8420FD01068B0F1804F0BD0104DC8
:1017C0001068A84207D00F4D1068A84203D00E4DF4
:1017D0001068A84205D121F08001586801431068C3
:1017E0008160012082F83D0000BF002082F83C00AB
:1017F00000BF00BFC5E70000002C014000340140DD
:101800000004004000080040000C004010B586B005
:101810000446002002900390049005902068B0F1E7
:10182000804F15D100BF0B48806940F00400094982
:1018300088610846806900F00400019000BF00BF85
:10184000022002900390059002A90348FFF754F884
:1018500006B010BD001002400008014070B50446FB
:101860000E46154600BF94F83C00012801D1022025
:1018700070BD012084F83C0000BF35B1042D09D0B3
:10188000082D0CD00C2D14D10EE03146206800F04C
:101890004BFB0FE03146206800F07EFB0AE031464A
:1018A000206800F0B7FB05E03146206800F0EEFB51
:1018B00000E000BF00BF00BF002084F83C0000BF74
:1018C00000BFD5E710B504460CB9012010BD94F84F
:1018D0003D0028B9002084F83C00204600F026F89E
:1018E000022084F83D00211D206800F0BDFA01208F
:1018F00084F8460000BF84F83E0001213F200155D6
:10190000402001554120015500BF00BF012084F84F
:10191000420043200155442001554520015500BF98
:10192000012084F83D000020D0E7000008B50168E0
:10193000B1F1804F0DD100BF0649C96941F00101E5
:10194000044AD1611146C96901F00101009100BF4B
:1019500000BF08BD0010024070B504460D4615B921
:1019600094F83E000BE0042D02D13F20005D06E01C
:10197000082D02D14020005D01E04120005D0128DA
:1019800001D0012070BD1DB9022084F83E000EE098
:10199000042D03D102213F20015508E0082D03D179
:1019A00002214020015502E002214120015501227F
:1019B0002946206800F0A6FA1F492068884203D013
:1019C0001E492068884201D1012000E0002028B192
:1019D0002068406C40F40040216848641649206843
:1019E000884213D01549206888420FD02068B0F192
:1019F000804F0BD012492068884207D011492068D7
:101A0000884203D01049206888420CD12068806841
:101A100000F00706062E0CD02068006840F0010098
:101A20002168086005E02068006840F00100216836
:101A300008600020A6E70000002C014000340140AF
:101A40000004004000080040000C004010B50446AF
:101A50000CB9012010BDA06900B100E000BF94F8EE
:101A6000390028B9002084F83800204600F028F812
:101A7000242084F839002068C06820F400502168D0
:101A8000C860204600F02CFB2068006920F49040DC
:101A9000216808612068406920F02A0021684861B7
:101AA0002068C06840F400502168C8600020E063EE
:101AB000202084F8390084F83A000020CAE70000AA
:101AC00010B586B004460020029003900490059063
:101AD0001A49206888422ED100BF1948806940F415
:101AE0008040174988610846806900F48040019071
:101AF00000BF00BF00BF0846806940F00400886155
:101B00000846806900F00400019000BF00BF48153E
:101B10000290022003900320059002A90948FEF7D5
:101B2000EBFE4FF48060029000200390049002A925
:101B30000448FEF7E1FE06B010BD00000038014089
:101B4000001002400008014000BFFEE70EB5002073
:101B50000090019002901348134908600021124838
:101B6000816001210173002101754FF46021C16181
:101B700000200D49486001210B480161FEF752FC2D
:101B800008B1FEF799FB0F20009001200190002082
:101B9000029069460448FEF791FB08B1FEF78CFB02
:101BA0000EBD0000002401403000002000B585B0CB
:101BB0000020019002900390049000BF2E4880699D
:101BC00040F010002C4988610846806900F0100040
:101BD000009000BF00BF00BF0846806940F00400CD
:101BE00088610846806900F00400009000BF00BFD3
:101BF00000BF0846806940F0080088610846806997
:101C000000F00800009000BF00BF002206211B4822
:101C1000FFF71CF8002205211948FFF717F80620E6
:101C2000019001200290002003900220049001A95D
:101C30001248FEF761FE052001900120029000206D
:101C400003900220049001A90D48FEF755FE4020A4
:101C500001900C4802900020039001A90748FEF76C
:101C60004BFE002211461720FFF77CF81720FFF7E4
:101C700069F805B000BD00000010024000100140EE
:101C8000000801400000211000B589B00020079035
:101C900008901C216846FEF76EFA4FF08040184904
:101CA000086040F2CF7048600021154881606321D0
:101CB000C160002101618161FFF704FE08B1FEF7F8
:101CC000FBFA00200790089007A90D48FFF750FD88
:101CD00008B1FEF7F1FA3020009031200190002089
:101CE00002900490042269460548FFF7B7FD08B149
:101CF000FEF7E2FA0248FFF789FD09B000BD0000D7
:101D00006000002010B50B480B4908604FF41650D6
:101D10004860002108488160C16001610C21416177
:101D200000218161C161FFF791FE08B1FEF7C4FA9D
:101D300010BD000000380140A800002000BFFEE7F1
:101D400010B50446217B01222068FEF77FFFA17BAE
:101D50000022A068FEF77AFFA17B0122A068FEF7AF
:101D600075FF002006E0002100E0491CB1F57A7FF4
:101D7000FBDB401CB0F5FA7FF5DBA17B0022A068FD
:101D8000FEF764FF10BD70477047000008B50849B2
:101D90000968C9084FF47A72B1FBF2F1414300912E
:101DA00000BF00BF00994A1E00920029F9D108BD6A
:101DB0000C0000207047000010B507480749086074
:101DC00048608860022008730420887308204873E4
:101DD000084600F030FA10BD00100140200000203D
:101DE00010B5024800F027FA10BD000010000020D6
:101DF00010B5FEF737FF10BD00B595B028210BA830
:101E0000FEF7B9F9142106A8FEF7B5F918216846BE
:101E1000FEF7B1F902200B9001200F9010201090D6
:101E2000002012900BA8FFF757FA08B1FEF744FA0A
:101E30000F20069000200790089009900A9000213A
:101E400006A8FFF713F908B1FEF736FA0220009052
:101E5000002002906846FFF771F808B1FEF72CFAEF
:101E600015B000BD7047000010B50268204B9842C5
:101E70000ED0204B98420BD0B0F1804F08D01E4BB3
:101E8000984205D01D4B984202D01D4B984203D179
:101E900022F070024B681A43154B98420ED0154B36
:101EA00098420BD0B0F1804F08D0134B984205D028
:101EB000124B984202D0124B984203D122F4407246
:101EC000CB681A4322F080034C6943EA04020260A3
:101ED0008B68C3620B688362054B984202D0054B46
:101EE000984201D10B6903630123436110BD0000D7
:101EF000002C014000340140000400400008004074
:101F0000000C004030B501F01F05012404FA05F370
:101F1000046A9C430462046A01F01F0502FA05F595
:101F20002C43046230BD000030B5056A25F0010580
:101F30000562026A4368846924F0700424F0030493
:101F40000D682C4322F002028D682A43104DA842EE
:101F500000D103E00F4DA84206D100BF22F00802D5
:101F6000CD682A4322F00402094DA84202D0094D4F
:101F7000A84207D123F4807323F400734D692B43E7
:101F80008D692B43436084614D684563026230BDB7
:101F9000002C01400034014030B5056A25F01005E1
:101FA0000562026A4368846924F4E04424F44074BE
:101FB0000D6844EA052422F020028D6842EA0512E9
:101FC000124DA84200D103E0114DA84207D100BF35
:101FD00022F08002CD6842EA051222F040020B4D49
:101FE000A84202D00A4DA84209D123F4806323F409
:101FF00000634D6943EA85038D6943EA85034360C5
:1020000084614D688563026230BD0000002C014090
:102010000034014030B5056A25F480750562026A16
:102020004368C46924F0700424F003040D682C4351
:1020300022F400728D6842EA0522124DA84200D1B6
:1020400003E0114DA84207D100BF22F40062CD6821
:1020500042EA052222F480620A4DA84202D00A4DCB
:10206000A84209D123F4805323F400534D6943EA75
:1020700005138D6943EA05134360C4614D68C56368
:10208000026230BD002C01400034014030B5056AC9
:1020900025F480550562036A4468C26922F4E0426F
:1020A00022F440720D6842EA052223F400538D6841
:1020B00043EA0533084DA84202D0084DA84204D196
:1020C00024F480444D6944EA85144460C2614D683B
:1020D0000564036230BD0000002C01400034014063
:1020E00070B504462168096921F44051E268114342
:1020F000226811612269A1681143626941EA0205FF
:102100002168C96841F20C62914329432268D16079
:102110002168496921F44071A26911432268516123
:102120002D4A2168914202D1FFF77CF801E0FFF7C8
:1021300069F800EBC00101EB001162689200B1FB8D
:10214000F2F100EBC00202EB001263689B00B2FBED
:10215000F3F26423B2FBF3F202EBC20303EB0212CD
:10216000A1EB8201322202EB01116422B1FBF2F1F8
:1021700001F0F00100EBC00202EB001263689B006B
:10218000B2FBF3F26423B2FBF3F201EB021200EBB9
:10219000C00101EB001163689B00B1FBF3F100EBA0
:1021A000C00303EB00136668B600B3FBF6F36426C6
:1021B000B3FBF6F303EBC30606EB0313A1EB8301BA
:1021C000322303EB01116423B1FBF3F101F00F01A2
:1021D00011442268916070BD0038014000BFFEE7E5
:1021E00002480068C0F30220704700000CED00E0D8
:1021F00010B5002804DB0A07130E054A135406E045
:102200000A07140E034A00F00F031B1FD45410BD1D
:1022100000E400E018ED00E002E008C8121F08C169
:10222000002AFAD170477047002001E001C1121F57
:10223000002AFBD1704710B50446217B002220689C
:10224000FEF704FD617B00226068FEF7FFFC10BD15
:102250002C482D49086048608860012008730220DE
:10226000887304204873FEF709FDFFF7C5FDFFF7EB
:102270009DFCFFF76BFCFFF745FDFFF705FD2348CD
:10228000FEF770FA04212248FFF766FBFFF7A8FD6E
:10229000FFF792FD35E04FF480711A48FEF7CCFC51
:1022A0004FF0FF311948FEF7A5F91848FEF7B6F8C8
:1022B00084B240F63400844205DD1348FDF7F4FF94
:1022C000114800F02FF8B4F5E16F05DA0E48FDF77C
:1022D000EBFF0D4800F01EF8B4F5E16F01DD0120C1
:1022E00000E0002040F634018C4201DA012100E0D8
:1022F0000021084010B10448FDF7C9FF6420FEF733
:10230000CFFAC8E70008014010000020300000208C
:102310006000002010B50446217B01222068FEF7F2
:1023200095FC10BD10B50446217B00222068FEF705
:102330008DFC10BD0000000000000000010203043D
:102340000607080900000000010203046C230008CE
:102350000000002010000000182200087C23000864
:1023600010000020D804000028220008000000000F
:0C23700010000000010000000024F40038
:0400000508000131BD
:00000001FF
