:020000040800F2
:1000000008040020190B0008390B00083B0B0008FE
:1000100000000000000000000000000000000000E0
:100020000000000000000000000000003D0B000880
:1000300000000000000000003F0B0008410B00081A
:100040007306000800000000EF060008EF09000832
:10005000F70A0008030B00085D0B00085F0B00089F
:1000600000000000610B0008630B0008650B00082E
:10007000670B0008690B00086B0B0008000000000C
:100080006D0B000800000000000000006F0B00086E
:1000900000000000710B0008730B0008750B0008CE
:1000A00000000000770B000800000000790B00083A
:1000B000FEB50700A84C3878C0074DD58025AD02A5
:1000C00060680C210140042907D060680C210140C0
:1000D00008290AD16068C00307D5206805403BD0D5
:1000E0007868002838D10120FEBD7968012902D145
:1000F000206869080BE09948994A00290AD0052927
:1001000008D120686900014321602068D143014380
:10011000216005E021680A402260216808402060D3
:10012000786800280CD000F071FA0600206828409A
:1001300012D100F06BFA801B6528F7D30320FEBDB7
:1001400000F064FA06002068284005D000F05EFA4E
:10015000801B6528F7D3F1E7022000903868022160
:1001600001401AD0F825ED4360680C21014007D00A
:1001700060680C210140082926D16068C00323D49F
:1001800020680221014002D0F8680128ABD1206824
:1001900005403869C000284320603878000750D5F2
:1001A000F8690028606A3CD001210143616200F0D7
:1001B0002DFA0500606A0099014042D100F026FA4C
:1001C000401B0228F6D9B9E7F8680028206818D043
:1001D00001210143216000F019FA3E000700206868
:1001E0000099014005D100F011FAC01B0228F6D990
:1001F000A4E7206805403069C0002843206037002C
:10020000CBE701218843206000F000FA0500206858
:1002100000990140C1D000F0F9F9401B0228F6D93D
:100220008CE701218843606200F0F0F90500606A04
:100230000099014005D000F0E9F9401B0228F6D9E9
:100240007CE704263868304068D000200290B00671
:10025000E169014008D1E1690143E161E1690840D8
:10026000019001980120029078480068C00512D4DE
:1002700076480068A10D01437448016000F0C6F99A
:10028000050072480068C00505D400F0BFF9401BA6
:100290006528F6D352E7B968012901D1206A0CE03C
:1002A0000420C0430122D243002909D0052907D1E7
:1002B000206A30432062206A01210143216205E067
:1002C000216A0A402262216A08402062AB480190FC
:1002D000B86800280DD000F099F90500206A00994F
:1002E000014014D100F092F9401B01998842F5D3E6
:1002F00024E700F08BF90500206A0099014006D040
:1003000000F084F9401B01998842F5D316E7029862
:10031000002803D0E0699A490140E1613878C006BD
:1003200027D57869F825ED43012840D1606B064355
:100330006663606B01210143616300F067F93E0071
:100340000700606B009901400CD100F05FF9C01B01
:100350000228F6D9F2E600BF00100240FFFFFBFFC3
:10036000FFFFFEFF606B0540B069C000284360637B
:100370003700386A002867D061680C220A40082AD2
:1003800000D1B0E68025AD048E49022820684DD109
:100390000140216000F03AF93E0007002068284043
:1003A00026D000F033F9C01B0228F7D9C6E6042195
:1003B000C9438842606B08D1B0436063606B0540FD
:1003C000B869C00028436063D3E706436663606B87
:1003D00001218843606300F019F90500606B009902
:1003E0000140C6D000F012F9401B0228F6D9A5E65C
:1003F000E06A0F218843F16A0143E1626068724953
:100400000140B06A0843716A01436160206869086D
:100410000143216000F0FAF806002068284013D15B
:1004200000F0F4F8801B0228F7D987E6014021602C
:1004300000F0ECF806002068284005D000F0E6F84F
:10044000801B0228F7D979E60020FEBD007000402D
:10045000F3B581B00127FF4301245C4909682140BD
:10046000029A91420AD259490A683A40029B1343C0
:100470000B6009682140029A914263D10090544D6B
:10048000022000990968014006D06968F022914372
:10049000009A92680A436A6000990968214041D035
:1004A00000994968012902D12868800303E00229E4
:1004B00003D12868800103D444E02A68104041D069
:1004C0006868032290430143696000F09FF80600CA
:1004D0000098406801280CD168680C21014004296B
:1004E00020D000F093F8801B24498842F4D30320E5
:1004F000FEBD02280BD168680C210140082911D0EB
:1005000000F084F8801B1D498842F4D3EFE7686847
:100510000C21014006D000F079F8801B1749884271
:10052000F5D3E4E7294802990268224091420BD2B0
:1005300001680F4002993943016000680440029845
:10054000844201D00120FEBD00980078400706D506
:100550006868204901400098C0680843686000F05E
:1005600011F81D496A681206120F895CC8401B49C0
:100570000860002000F050F80020FEBD8913000044
:10058000FFFFFFEF164B196816480C220A40082A95
:1005900000D0704730B50F2214A48D0C1540645D57
:1005A0009B6AC90307D500BF14A11A40895C00F0FB
:1005B00045F8604330BD20000B49484330BD074833
:1005C00000687047FFFFFFFEFFFFC2FF00200240F0
:1005D00000100240FFF8FFFF500A00080000002052
:1005E0000410024000127A0000093D0002030405D5
:1005F000060708090A0B0C0D0E0F10100102030468
:1006000005060708090A0B0C0D0E0F1001480068BB
:10061000704700BF0400002010B50400FFF7CFFFB3
:10062000FA21890000F00AF800F045F800222100C4
:100630000020C04300F03BF8002010BD094214D058
:1006400088420FD30122030C01D1000412040023BD
:1006500000185B418B4200D35B1A5241F8D319005A
:100660001000704701000020704708B500F03EF808
:1006700008BDFEE710B5C20018231340FF249C40BC
:10068000E2438907090E9940030007D5144B000780
:10069000000F083880088000181803E011489B08F4
:1006A0009B00C01803681A401143016010BD80B55B
:1006B000FFF7E0FF01BD10B5401E802149048842CC
:1006C00001D3012010BD084C606003210020C0430D
:1006D000FFF7D0FF0020A0600721216010BD0000BF
:1006E0001CED00E000E400E010E000E07047FEE7F1
:1006F000FEB50022012301932AE0052703E0574FAE
:10070000B842FAD10327A74037432F60544C2668DC
:10071000DC4326404D68ED0300D51E43504D2E604E
:100720006E6826404F68BF0300D51E436E60AE68FA
:1007300026404F68FF0200D51E43AE60EE6834408D
:100740004E68B60202D526001C003443EC60521CF1
:100750000C682300D34076D0019B93400293234042
:10076000F5D094006D462C704C68022C01D0122CF0
:1007700011D1D408A40005192C6A6E4637781C26BE
:100780003E400F27B740BC430F69BC463700664662
:10079000BE4026432E62066854000327A740FD434F
:1007A0002E400F79BF07BF0FA740374307604E6841
:1007B000012E05D0022E03D0112E01D0122E11D100
:1007C00086682E40CF68A740374387604768029EFF
:1007D000B743BC464E683709019E3E409640674687
:1007E0003E434660C66835408E68A6402E43C660CC
:1007F0004C68E400ABD51B4C2468019D2543194C83
:1008000025602468019D25400295029C164C9508A0
:10081000AD0065192E686C4627780C243C400F27E4
:10082000A740BE439027FF05B84201D100276AE7E1
:100830000E4FB84201D1019F65E70D4FB84200D07D
:100840005DE702275FE7F7BD002A01D081617047AD
:100850008162704742694A4042617047000C00481B
:100860000004014018100240080001400004004844
:100870000008004810B586B000F050F800F02CF8E1
:100880001422002101A800F059F8802080021149AB
:100890000A6802430A6009680840009000989024A2
:1008A000E405002210212000FFF7CEFF1020019068
:1008B0000120029000200390049001A92000FFF77E
:1008C00017FF10212000FFF7C5FFC820400000F0EF
:1008D0003FF8F6E71410024010B590B03022002126
:1008E00004A800F02BF810220021684600F026F83A
:1008F00002200490012007901020089000240C94FE
:1009000004A8FFF7D5FB07200090019402940394FC
:1009100000216846FFF79CFD10B010BD80B5064869
:10092000016810220A4302600020FFF775FE00F004
:100930001FF8002002BD00000020024010B5040096
:10094000080011000200200000F02AF8200010BD6D
:1009500031B5FFF75BFE0400009D0020C0438542D7
:1009600000D06D1CFFF752FE001BA842FAD331BD28
:1009700081B0012009490A6802430A600A681040F0
:1009800000900098802040054A6802434A60496808
:1009900008400090009801B0704700BF1810024056
:1009A0001206130A1A43130C1A4300BF094205D05A
:1009B000830705D00270401C491EF9D17047000022
:1009C0001300103906D330B41400150010393CC0A0
:1009D000FCD230BC490700D30CC000D504C089004C
:1009E00002D30280801C002900D502707047FEE708
:1009F0001148016801220A43026041680F4A0A4017
:100A0000426001680E4A0A40026001680D4A0A40CD
:100A1000026041680C4A0A404260C16A0F22914359
:100A2000C162016B094A0A400263416B0122914392
:100A30004163002181607047001002400CB8FF083C
:100A4000FFFFF6FEFFFFFBFFFFFFC0FFECFEFFFF17
:100A5000000000000000000001020304060708096E
:100A600030B401220EE00368C31844680830144211
:100A700002D04D466D1E64191D6825601B1D241D86
:100A8000091FF9D10168001D0029ECD130BC704765
:100A900010B5074979441831064C7C44163404E0FB
:100AA000081D0A68891888470100A142F8D110BDC5
:100AB0000800000018000000A9FFFFFF0800000068
:100AC00094000000000000200000000000F00DF87D
:100AD000002801D0FFF7DCFF00BF00BF002000BFEF
:100AE00000BFFFF7C7FE00F002F80120704780B595
:100AF00000F002F801BDFEE70746384600F002F8B4
:100B0000FBE7FEE780B500BF00BF024A11001820D6
:100B1000ABBEFBE7260002000148804701480047C2
:100B2000F1090008490B000802480168491C0160EE
:100B3000704700BF040000207047FEE77047704711
:100B400080B5FFF7F1FF01BD00BF00BF00BF00BFD0
:100B5000FFF7BCFF00127A0000000000FEE7FEE78E
:100B6000FEE7FEE7FEE7FEE7FEE7FEE7FEE7FEE75D
:0A0B7000FEE7FEE7FEE7FEE7FEE702
:0400000508000B499B
:00000001FF
